:10000000F3C000000C949E110C94C51115C10000A2
:1000100013C1000011C100000FC100000C9449166B
:100020000BC1000009C1000007C1000005C10000AC
:1000300003C100000C94AF16FFC00000FDC000001B
:100040000C94EC11F9C000000C94A6140C94D81474
:10005000F3C00000F1C00000EFC00000EDC00000E0
:10006000EBC00000E9C00000AE1E6C20D620D920F5
:10007000B01FE31F6D1E8E1E511EB320A220AF20A5
:10008000D920D920D9203C1E000000080002010020
:100090000003040700000000000000000102040843
:1000A00010204080010204081020010204081020E2
:1000B000040404040404040402020202020203030E
:1000C00003030303000000002300260029000000B2
:1000D0000000250028002B0000000000240027005D
:1000E0002A0002001D3A2774694E53E8F5D2CF9CCE
:1000F00081A6BBCDD0F7EAB9A4839E25381F025153
:100100004C6B76879ABDA0F3EEC9D46F7255481B2D
:1001100006213C4A57706D3E230419A2BF9885D62C
:10012000CBECF1130E2934677A5D40FBE6C1DC8F1E
:1001300092B5A8DEC3E4F9AAB7908D362B0C114214
:100140005F78659489AEB3E0FDDAC77C61465B08F1
:1001500015322F5944637E2D30170AB1AC8B96C5EA
:10016000D8FFE2263B1C01524F6875CED3F4E9BAA2
:10017000A7809DEBF6D1CC9F82A5B8031E392477CA
:100180006A4D50A1BC9B86D5C8EFF24954736E3DB1
:1001900020071A6C71564B1805223F8499BEA3F0B4
:1001A000EDCAD735280F12415C7B66DDC0E7FAA99E
:1001B000B4938EF8E5C2DF8C91B6AB100D2A37648C
:1001C000795E43B2AF8895C6DBFCE15A47607D2E6D
:1001D0003314097F6245580B16312C978AADB0E372
:1001E000FED9C400FD14691511241FBECFEFD8E05D
:1001F000DEBFCDBF12E0A0E0B1E0EEE3FCE402C060
:1002000005900D92AA3AB107D9F724E0AAEAB2E024
:1002100001C01D92AC3AB207E1F710E0C4EFD0E0A4
:1002200004C02197FE010E94A324C23FD107C9F751
:100230000E9460220C941D26E3CE662311F061E03B
:1002400001C060E00C94F812662311F061E001C077
:1002500060E00C9434130E94631321E0019709F0CD
:1002600020E0822F0895CF92DF92EF92FF92CF93FA
:1002700080918F04082E000C990B0197029710F4BF
:1002800083E001C080E080938F048091680488231C
:1002900029F0813029F41092670406C081E002C081
:1002A0008091690480936704E091670484E0E89F8B
:1002B000F0011124EF5BFB4F81A592A5A3A5B4A586
:1002C0008093630490936404A0936504B0936604E0
:1002D0008FEF80936704C0907201D0907301E0901B
:1002E0007401F0907501A701960160917D047091F1
:1002F0007E0480917F04909180040E945123882382
:1003000041F0C0927D04D0927E04E0927F04F0928E
:100310008004C0907601D0907701E0907801F09051
:100320007901A70196016091810470918204809106
:100330008304909184040E945123882341F0C09249
:100340008104D0928204E0928304F092840483E0DA
:1003500082DFC82FC0907A01D0907B01E0907C01B1
:10036000F0907D01A701960160918B0470918C043F
:1003700080918D0490918E040E945123882341F036
:10038000C0928B04D0928C04E0928D04F0928E0483
:100390006C2F8DE059DF84E080938F04CF91FF9024
:1003A000EF90DF90CF9008958F929F92AF92BF927F
:1003B000CF92DF92EF92FF9281E090E00E942B11AA
:1003C00040915704509158046091590470915A0417
:1003D00080E090E00E942711809072049090730456
:1003E000A0907404B090750420E030E040E85FEB2A
:1003F000C501B4010E945123882331F1C0905704F4
:10040000D0905804E0905904F0905A04A701960146
:10041000C501B4010E94EC224B015C0120E030E0F8
:1004200040E054E3C701B6010E940B249B01AC01DC
:10043000C501B4010E940724181634F087E891E042
:10044000909342048093410480917604882331F094
:1004500087E891E09093420480934104C0905B044C
:10046000D0905C04E0905D04F0905E048FEFC81AB9
:10047000D80AE80AF80AC0925B04D0925C04E092C1
:100480005D04F0925E04C701B6010E9455232091DD
:100490005F043091600440916104509162040E94B5
:1004A0000B246093570470935804809359049093DD
:1004B0005A0480916704882329F0813029F410922E
:1004C000680409C081E005C081E090916904911140
:1004D00080E0809368048091680494E0899FF00133
:1004E0001124EF5BFB4FC1A6D2A6E3A6F4A680932E
:1004F00069048FEF80936804FF90EF90DF90CF90B6
:10050000BF90AF909F908F9008958F929F92AF92DF
:10051000BF92FF920F931F93CF93DF9384E090E0FD
:1005200008D1E1E4F4E086E3DF011D928A95E9F762
:1005300080E090E0A0E8BFEB81AB92ABA3ABB4ABA3
:1005400080E090E0A0E8BFE3868F978FA0A3B1A3DF
:1005500089E69DE3AFECBEEE84839583A683B783E3
:1005600081E498E0AEE4B3EE80879187A287B387F9
:1005700082EC98E9ABEFB9E984879587A687B787BE
:1005800087E691ECA6E6BEE5808B918BA28BB38BC0
:10059000C8ECD2E0D383C283AEEBB2E0B983A883C8
:1005A00087E492E011969C938E938FE894E01396E3
:1005B0009C938E93129715969C938E9314971796EF
:1005C0009C938E93169719969C938E93189785E516
:1005D00094E09D838C8385E494E09B838A8387E504
:1005E00094E09F838E83C7E7D4E089E1DE011D920A
:1005F0008A95E9F72AEA32E084E1D9011D928A95C9
:10060000E9F7358B248B80E190E0D90111969C931A
:100610008E9382E591E013969C938E93129782E3DA
:1006200091E015969C938E93149786E191E017962E
:100630009C938E9316978AE091E019969C938E93E3
:1006400018978FEF86A387A302E711E0F801808156
:100650009181A281B3818E839F83A887B98784818A
:100660009581A681B7818A879B87AC87BD87812CBE
:10067000912C5401839489829A82AB82BC8260E07F
:1006800083E0DBDDFF24F394FD821E86F801808584
:100690009185A285B3858C8B9D8BAE8BBF8B1B8A7E
:1006A0008F86988AA98ABA8A61E08DE0C6DDFB8AC6
:1006B00062E082E00E94F81242E050E063E371E001
:1006C00080E0DF91CF911F910F91FF90BF90AF908D
:1006D0009F908F900C947E1180917704811103C0BC
:1006E00081E08093770480918504811103C081E0CB
:1006F00080938504089560E070E080E89FE70895A6
:1007000060E070E080E89FE7089560E070E080E8D6
:100710009FEF089560E070E080E89FEF089560E04B
:1007200070E080EC9FEF089560E070E080EC9FEF58
:100730000895F5DF60939C0470939D0480939E045C
:1007400090939F04F1DF60939004709391048093E1
:10075000920490939304CFDF60939804709399046C
:1007600080939A0490939B04CBDF609394047093DE
:1007700095048093960490939704C7DF6093A00438
:100780007093A1048093A2049093A304C3DF6093A9
:10079000A4047093A5048093A6049093A7040895DD
:1007A000EF92FF920F931F93CF93DF93DC01EA0147
:1007B000F90114968D919C91159712960D911C91AB
:1007C0001397080F191F2881398118964D915C9154
:1007D00019974217530728F04D915C911197452BBB
:1007E00039F17801E21AF30A18964D915C91199744
:1007F000481B590B4E0D5F1D4617570794F1A90171
:10080000460F571F40175107E0F0F182E082338313
:1008100022836E197F0975836483161617061CF4EC
:10082000382F292F02C030E020E03683278313C001
:1008300018968D919C911997821B930B8617970799
:1008400084F071836083338322831582148217823C
:10085000168288819981680F791F7983688380E087
:1008600001C081E0DF91CF911F910F91FF90EF9038
:100870000895CF92DF92EF92FF92CF93DF936B01B7
:100880007C0184E48C9DE0018D9DD00D1124CC521F
:10089000DD4F8AA99BA9009721F00E946C251BAA15
:1008A0001AAA84E48C9DF0018D9DF00D1124EC5268
:1008B000FD4F86A997A9009711F00E946C2584E44A
:1008C0008C9DF0018D9DF00D1124EC52FD4F138A8B
:1008D000128A168A178A108E118E128E138E148E1B
:1008E000158E168E178E10A211A281E090E093A3B0
:1008F00082A315A214A216A217A210A611A613A6CF
:1009000012A615A614A616A617A610AA11AA13AA0F
:1009100012AA15AA14AA17AA16AA11AE10AE12AEE0
:1009200013AE14AE15AEDF01DE961D921D921D9220
:100930001C921397EE5BFF4F11821082DF91CF91D3
:10094000FF90EF90DF90CF9008950F931F93CF9378
:10095000DF93EB01DC018D919C91FC01A681B781B5
:10096000E881F98123E0EE0FFF1F2A95E1F7129647
:100970002D913C911397E20FF31F00811181AC85FB
:10098000BD859D01220F331FDC0112968D919C9134
:100990001397D901A80FB91F8D919C91248135819E
:1009A000232B19F461E070E002C062E070E0689F00
:1009B0009001699F300D789F300D112488859985AD
:1009C000289FB001299F700D389F700D1124EC8174
:1009D000FD812E9FC0012F9F900D3E9F900D1124F1
:1009E000800F911FFA019183808373836283DF916B
:1009F000CF911F910F9108952F923F924F925F9246
:100A00006F927F928F929F92AF92BF92CF92DF921E
:100A1000EF92FF920F931F93CF93DF9300D000D0FC
:100A200000D0CDB7DEB7DC011496ED91FC9115979F
:100A30000190F081E02D808591859A838983A28140
:100A4000B381BC83AB83FB0181909190A190B19065
:100A50008F01C12CD12C7601C814D904EA04FB04FF
:100A60000CF05FC0D80114964D905D906D907C9015
:100A7000179718964D915D916D917C911B97F80198
:100A80007096FE83ED83F801A081B18183E0AA0F07
:100A9000BB1F8A95E1F7E981FA8182819381A80FD2
:100AA000B91F2D903C901197F80124853585220FB0
:100AB000331F8B819C81280F391FF901008111811F
:100AC00014968D919C911597892B19F481E090E0F3
:100AD00002C082E090E0809F9001819F300D909F46
:100AE000300D1124249F8001259F100D349F100D7F
:100AF0001124249DC001259D900D349D900D11243D
:100B0000A8016D817E81820D931D0E9404268D8136
:100B10009E81080F191F9FEFC91AD90AE90AF90A1D
:100B20009BCF26960FB6F894DEBF0FBECDBFDF91E8
:100B3000CF911F910F91FF90EF90DF90CF90BF90DA
:100B4000AF909F908F907F906F905F904F903F906D
:100B50002F900895CF93DF93DB01A258BE4F2C91C5
:100B6000222369F024E4269FF001279FF00D112431
:100B7000EC52FD4FEF0119922A95E9F71C9224E4FB
:100B8000269FF001279FF00D1124EC52FD4F148297
:100B90001582168217821186108613861286118A94
:100BA000108A17861686DF91CF9163CE2F923F92DF
:100BB0004F925F926F927F928F929F92AF92BF926D
:100BC000CF92DF92EF92FF920F931F93CF93DF9319
:100BD000CDB7DEB728970FB6F894DEBF0FBECDBFF6
:100BE0006B017C011A0184E48C9D90018D9D300D78
:100BF00011242C523D4FF90184819581A681B78142
:100C0000892B8A2B8B2B09F4B8C0A12CB12C412C39
:100C1000512C320138872F83C90104969A83898326
:100C2000D9011896BC83AB83E981FA8180819181D7
:100C3000A281B381481659066A067B0694F5AB81FA
:100C4000BC81ED91FC91EA0DFB1D2281338189016C
:100C5000812C912C82149304C4F4D801ED91FC9161
:100C6000309769F0848195812D833E830E946C25A5
:100C7000F801808191810E946C253E812D81FFEFDA
:100C80008F1A9F0A0E5F1F4FE5CFC9010E946C2586
:100C90008FEF481A580A680A780A94E0A90EB11C26
:100CA000C3CFAF81B88518968D919C9119970E94FA
:100CB0006C25EF81F88582859385892B59F1A12CCC
:100CC000B12C812C912C84E48C9D80018D9D100D84
:100CD000112402521D4F8214930484F4D801ED9123
:100CE000FC91EA0DFB1D848195810E946C25BFEF6C
:100CF0008B1A9B0AEEE0AE0EB11CEDCF84E48C9D06
:100D0000F0018D9DF00D1124EC52FD4F82859385ED
:100D10000E946C2584E48C9D90018D9D300D1124E2
:100D200089010C521D4FD80150968D919C9151977D
:100D30000E946C25F801868597850E946C25C70165
:100D4000B60197DDC701B60128960FB6F894DEBF4D
:100D50000FBECDBFDF91CF911F910F91FF90EF900C
:100D6000DF90CF90BF90AF909F908F907F906F90CB
:100D70005F904F903F902F90EDCE28960FB6F8944D
:100D8000DEBF0FBECDBFDF91CF911F910F91FF90BE
:100D9000EF90DF90CF90BF90AF909F908F907F901B
:100DA0006F905F904F903F902F90089524E4269F7E
:100DB000F001279FF00D1124EC52FD4F8289938999
:100DC0000497029758F485E090E0938B828B8FEF25
:100DD0009FEFDC01828F938FA48FB58F08952F92A0
:100DE0003F924F925F926F927F928F929F92AF92BB
:100DF000BF92CF92DF92EF92FF920F931F93CF9308
:100E0000DF93CDB7DEB7E0970FB6F894DEBF0FBE25
:100E1000CDBF9AA389A31B016A012801390184E48B
:100E2000849D8001859D100D112498012C523D4F09
:100E30007901D9014D925D926D927C921397AB012D
:100E4000C301B201B3DEF801E852FD4FD6014D9166
:100E50005D916D917D918D01CA01408351836283C3
:100E6000738364E070E00E94BD24F701918780875E
:100E7000892B09F49FC11E8E1D8E198E1A8E1B8E12
:100E80001C8EF8A2EF8E97012C5F3F4F38A72FA33F
:100E90002C5F3F4F3AA729A7EFA1F8A58081918148
:100EA000A281B381298D3A8D4B8D5C8D281739072E
:100EB0004A075B070CF0E7C0A9A5BAA58D919C91E4
:100EC0002D8D3E8D280F391F3A8B298BD801ED913E
:100ED000FC91EE0FFF1FA9A1BAA18D919C91E80F83
:100EE000F91F80819181F90191838083D801149643
:100EF0002D913D914D915C9117972BA33CA34DA350
:100F00005EA3085F1F4F62E070E0C1010E94BD2434
:100F1000E989FA8993838283892B09F44BC11D8A5D
:100F20001E8A1F8A188E2D893E894F89588D8BA164
:100F30009CA1ADA1BEA1281739074A075B070CF099
:100F40008FC0D801ED90FC90EE0CFF1CE989FA8966
:100F5000C280D380CE0CDF1C68E070E081E090E0BE
:100F60000E94BD24D6018D939C93E989FA898281E0
:100F70009381FC01EE0DFF1DC080D180C114D1040E
:100F800009F418C1F80184819581A681B781F60121
:100F900080839183A283B383085F1F4F18161906BD
:100FA0001A061B0634F01C8A1B8A812C912C5401D2
:100FB0000CC064E070E00E94BD24D60115969C939D
:100FC0008E931497892B79F7F5C0F6018081918172
:100FD000A281B38188169906AA06BB06A4F5F6017C
:100FE000E480F5802B893C89E20EF31EF801DE01D6
:100FF000119680E101900D928A95E1F7005F1F4FF5
:10100000A701BE016F5F7F4FA9A1BAA114968D9170
:101010009C9115979ADCF60126813781D7011296AB
:101020008D919C911397820F931F97838683BFEFB7
:101030008B1A9B0AAB0ABB0A2B893C892C5F3F4F5A
:101040003C8B2B8BC2CF2D893E894F89588D2F5FCA
:101050003F4F4F4F5F4F2D8B3E8B4F8B588F63CF42
:10106000298D3A8D4B8D5C8D2F5F3F4F4F4F5F4FDA
:10107000298F3A8F4B8F5C8F2D8D3E8D2C5F3F4F8C
:101080003E8F2D8F09CF6EE070E0C1010E94BD241C
:10109000AF8DB8A11B969C938E931A97812C912C9F
:1010A000A12CB12CC12CD12C24E4249DC001259D60
:1010B000900D11249C0122523D4F3A8B298B21E047
:1010C00030E0A214B3040CF04DC0D8014D915D91F5
:1010D0006D917D918D01E989FA89E080F180E80CBC
:1010E000F91C77FD67C0D70111963C932E934115EB
:1010F000510561057105A9F0CA012FA738AB4BA7AF
:101100005CA76DA77EA70E94D724F70195838483EF
:101110002FA538A94BA55CA56DA57EA5892B31F41B
:1011200049C0D70115961C921E921497F70153835C
:1011300042838481958197838683918780871386F4
:10114000128681E090E0452B462B472B11F480E07E
:1011500090E0C80ED91EFFEFAF1ABF0A4EE0840E12
:10116000911CAFCF84E4849D8001859D100D1124D6
:101170000C521D4FD8011D961C921E921C97C60141
:1011800033E0880F991F3A95E1F70E94D724F801C0
:10119000918B808B892B71F0C601880F991F0E945B
:1011A000D724D8011F969C938E931E97892B11F0FC
:1011B00080E005C0A101C301B201F8DC81E0E09646
:1011C0000FB6F894DEBF0FBECDBFDF91CF911F9158
:1011D0000F91FF90EF90DF90CF90BF90AF909F90D6
:1011E0008F907F906F905F904F903F902F900895D9
:1011F0002F923F924F925F926F927F928F929F9227
:10120000AF92BF92CF92DF92EF92FF920F931F9314
:10121000CF93DF93CDB7DEB768970FB6F894DEBFF4
:101220000FBECDBF9C8B8B8BDB0149015A0124E49F
:10123000289DC001299D900D11249C012C523D4FE9
:1012400079012D913C911197F701358B248BFC018D
:10125000E651FD4F14964D915D916D917C911797DC
:101260004083518362837383FC01E251FD4F1896E2
:101270004D915D916D917C911B9740835183628369
:101280007383FC01EE50FD4F1C964D915D916D9165
:101290007C911F974083518362837383FC01EE5FCF
:1012A000FC4F50965C91509751964C9151975296A5
:1012B0003C91529753962C9153975083418332839C
:1012C00023838D010C5E1F4F852F942F181619064E
:1012D0000CF068C0880F991F880F991F0E94D724AF
:1012E000D701D3969C938E93D297892B09F4BCC0D7
:1012F000212C312C412C512C32019701225D3F4F82
:101300003E8B2D8B2C5F3F4F388F2F8B2E5F3F4FA7
:101310003A8B298BB301A2012FEF421A520A620ABB
:10132000720AED89FE8980819181A281B38148177B
:1013300059076A077B074CF5AF89B88DCD90DC90D3
:10134000C20CD31CF801DE01119680E101900D92D0
:101350008A95E1F7005F1F4FA601BE016F5F7F4FC7
:10136000EB89FC8984819581F0DAA989BA898D910C
:101370009C911197F60122813381820F931F8D93E7
:101380009C93F4E02F0E311CC5CFD701D4968D91DC
:101390009C91D5970E94D724F70197AB86AB892BF8
:1013A00009F462C0F80180819181A281B38124E4B3
:1013B000289DF001299DF00D1124EC52FD4FAC0148
:1013C000BD014D7F21E030E0452B462B472B11F02E
:1013D00020E030E033A322A324E4289DF001299DDE
:1013E000F00D1124EC52FD4F0197A109B10921E044
:1013F00030E00297A105B10510F020E030E035A300
:1014000024A384E4889DF001899DF00D1124CF016F
:1014100086509D4FD80114964D915D916D917C91B0
:101420001797DC014D935D936D937C931397EC526A
:10143000FD4F868D978DA0A1B1A1B7FF10C0B095CB
:10144000A095909581959F4FAF4FBF4F82AF93AFBF
:10145000A4AFB5AF168E178E10A211A20AC012AE9D
:1014600013AE14AE15AE05C0C501B40102DA81E0B9
:1014700001C080E068960FB6F894DEBF0FBECDBF06
:10148000DF91CF911F910F91FF90EF90DF90CF9060
:10149000BF90AF909F908F907F906F905F904F9094
:1014A0003F902F900895CF92DF92EF92FF92CF93CB
:1014B000DF9310925C0324E4269FF001279FF00D38
:1014C0001124EC52FD4F15A614A620E030E0C12CEB
:1014D000D12CDF011A96C1E0D0E0C416D506D4F4B1
:1014E000ED91FC911197E20FF31FE280F3801E143F
:1014F0001F0454F4E480F580F782E682F186E086EA
:1015000013861286D183C083EFEFCE1ADE0A225FE4
:101510003F4FE3CF24E4269FF001279FF00D1124D5
:10152000EC52FD4F13A612A611AE10AEDF01DE96EF
:101530001D921D921D921C92139782E090E0938B56
:10154000828BDF91CF91FF90EF90DF90CF90089545
:1015500024E4269FF001279FF00D1124EC52FD4F4B
:10156000138A128A23CB24E4269FF001279FF00DD3
:101570001124EC52FD4F8289938981309105C8F086
:101580008530910518F0059769F008958FEF9FEF6A
:10159000DC01828F938FA48FB58F85E090E0938BD1
:1015A000828B08958FEF9FEFDC01828F938FA48F42
:1015B000B58F089524E4249FF001259FF00D112498
:1015C000EC52FD4F2EE0AC01249FC001259F900DF1
:1015D00011240284F385E02DE80FF91F81E0809348
:1015E0005C0382859385918780874085518526811C
:1015F000378181E090E04217530711F080E090E0DE
:101600009183808308952F923F924F925F926F92C1
:101610007F928F929F92AF92BF92CF92DF92EF9282
:10162000FF920F931F93CF93DF93CDB7DEB7C255D1
:10163000D1090FB6F894DEBF0FBECDBF21969FAF84
:101640008EAF21974BA75CA76DA77EA748015901D4
:1016500084E4889D8001899D100D1124F801EC52CD
:10166000FD4F2285338527963FAF2EAF279782897E
:101670009389029709F060C186A597A5A0A9B1A991
:10168000892B8A2B8B2B29F484E090E0938B828B1F
:1016900053C18489958921964EAD5FAD2197481736
:1016A000590709F049C186A997A99AAB89AB1EAE23
:1016B0001DAE19AE1AAE1BAE1CAE8F01DF019E9699
:1016C0002996BFAFAEAF2997F2962B96FFAFEEAF3C
:1016D0002B979801285C3F4F2D963FAF2EAF2D974B
:1016E000A8014A5D5F4F2F965FAF4EAF2F97C8019D
:1016F000829661969FAF8EAF61971A976396BFAF40
:10170000AEAF63972996EEADFFAD299780819181A9
:10171000A281B38129AD3AAD4BAD5CAD2817390735
:101720004A075B070CF0E7C02B96EEADFFAD2B9799
:10173000808191812DAD3EAD280F391F3EAB2DAB81
:10174000D90112960D90BC91A02D2396BFAFAEAFDC
:101750002397B695A795B695A7952596BFAFAEAF3B
:1017600025972D96EEADFFAD2D9780819181892B28
:1017700009F496C02F96AEADBFAD2F97CD90DD90FA
:10178000ED90FC9029A83AA8F9010190F081E02D94
:10179000F8ABEFA718AE1FAA8FA998AD2596AEADEE
:1017A000BFAD25978A179B070CF07AC06196AEAD46
:1017B000BFAD61978D919C91892B69F1EFA5F8A937
:1017C0004080518062807380A7019601C301B201FD
:1017D0000E94072487FD0BC0A7019601D1016D91DE
:1017E0007D918D919C910E94512387FD8CC0A70112
:1017F0009601C301B2010E940724181664F4A701E0
:101800009601F10160817181828193810E9451234F
:10181000882309F478C06396AEADBFAD63978D9110
:101820009C91892B69F1EFA5F8A9408051806280D5
:101830007380A7019601C301B2010E94512387FF63
:101840000BC0A7019601D1016D917D918D919C9165
:101850000E94072487FF57C0A7019601C301B20168
:101860000E94512381110CC0A7019601F1016081F2
:101870007181828193810E94072418160CF443C061
:101880002FA938AD2F5F3F4F38AF2FAB34E0230E79
:10189000311C4FA558A94C5F5F4F58AB4FA77CCF69
:1018A000EDA9FEA96081718123964EAD5FAD2397AE
:1018B00089A99AA90E94042625968EAD9FAD2597E9
:1018C000880F991F880F991F29A93AA9280F391F36
:1018D0003AAB29AB89AD9AADABADBCAD0196A11DBC
:1018E000B11D89AF9AAFABAFBCAFADADBEAD149675
:1018F000BEAFADAF07CF81E090E0D801D9969C9301
:101900008E93D89719C084E4889DF001899DF00DCD
:101910001124EC52FD4F868D978DA0A1B1A1892B8A
:101920008A2B8B2B09F064C284E090E0938B828B2E
:1019300086AD97AD93A782A784E4889DF001899D29
:10194000F00D1124EC52FD4F82899389823091056C
:1019500071F482AD93ADA4ADB5AD181619061A0693
:101960001B060CF04CC2CC24C394D12C05C00497A8
:1019700009F045C2C12CD12C8EE02196EEADFFAD11
:1019800021978E9F70018F9FF00C112427962EAD0A
:101990003FAD2797E20EF31ED70112964D915C9151
:1019A00013974115510509F42AC216968D919C9101
:1019B00017979AA789A7FE01319684E1DF011D924E
:1019C0008A95E9F7898A9A8AAB8ABC8AC114D104BC
:1019D00009F457C084E4889DF001899DF00D11241D
:1019E000EC52FD4FDF01DE964D905D906D907C9046
:1019F00082AD93ADA4ADB5AD481659066A067B0617
:101A000009F03FC0F701648175810084F185E02D04
:101A100084819581A681B7819C018D8B9E8BAF8B34
:101A2000B88F285F3F4F3E8B2D8BD70118968D9135
:101A30009C911997280F391F19963C932E9318974C
:101A400018968D919C911997460F571F841B950BE3
:101A500097FD06C0860F971F19969C938E93189733
:101A600084E4889DF001899DF00D1124EE5EFC4F09
:101A7000B1E04B1A510861087108408251826282BC
:101A800073829E012B5E3F4FAE01475D5F4F64E165
:101A900070E0C7010E94D003082F10E00115110566
:101AA00009F091C18CE090E0A0E0B0E08D839E83CE
:101AB000AF83B8879E01235E3F4FAE01475D5F4F06
:101AC00064E070E0C7010E94D003082F10E0011508
:101AD000110509F078C180E190E0A0E0B0E08D83CD
:101AE0009E83AF83B8874D8D5E8DBE01655D7F4F50
:101AF0008F8D98A10E9404268BA19CA1009761F074
:101B00006D8D7E8DEBE2F0E0EC0FFD1F6E0F7F1F01
:101B100049A15AA10E9404261DA21EA21FA218A616
:101B200021962EAD3FAD2197220F331F38AF2FAB3B
:101B300024E4289DC001299D900D11248C529D4FB5
:101B4000AC014C5F5F4F5AAF49AFDC011896BEAF96
:101B5000ADAF2DA13EA14FA158A529AB3AAB4BABE0
:101B60005CABE9ADFAAD80819181A281B381281788
:101B700039074A075B070CF0CFC0ADADBEADED91A4
:101B8000FC9189A99AA9880F991F880F991FE80FBE
:101B9000F91FA081B1818C91882309F4AFC08330F3
:101BA00009F4ACC00280F381E02D2FA938ADE20F1B
:101BB000F31F4081518158AB4FA7452B09F49EC0BC
:101BC00089859A85AB85BC850196A11DB11D898744
:101BD0009A87AB87BC879E01235E3F4FAE01475D6E
:101BE0005F4F64E070E0C7010E94D00390E000976F
:101BF00009F0E8C08D819E81AF81B8850496A11D52
:101C0000B11D8D839E83AF83B8874D8D5E8DBE01E0
:101C10006B5D7F4F8F8D98A10E9404268BA19CA1A4
:101C2000009761F06D8D7E8DA5E2B0E0AC0FBD1F19
:101C30006A0F7B1F49A15AA10E9404261EAA1DAA51
:101C4000412C512C3201EFA5F8A980819181A2810C
:101C5000B381481659066A067B060CF04FC0EFA503
:101C6000F8A9248035802DA93EA9220E331ED1016A
:101C700012966D917C9113979E01235E3F4FAE01AA
:101C8000475D5F4FC7010E94D00390E0009709F0C5
:101C900099C0F10182819381092E000CAA0BBB0B24
:101CA0004D815E816F817885840F951FA61FB71FB8
:101CB0008D839E83AF83B887608171814D8D5E8DEA
:101CC0008F8D98A10E9404268BA19CA1009759F0AA
:101CD000D1016D917C912D8D3E8D620F731F49A1B5
:101CE0005AA10E940426BFEF4B1A5B0A6B0A7B0ABB
:101CF000EDA9FEA93496FEABEDABA5CF49A85AA835
:101D00006BA87CA8FFEF4F1A5F0A6F0A7F0A4DA2EB
:101D10005EA26FA278A61DCF89859A85AB85BC850A
:101D2000892B8A2B8B2B09F44EC08AE190E0A0E02E
:101D3000B0E089839A83AB83BC8321962EAD3FADFF
:101D40002197C901330FAA0BBB0B8D879E87AF87E5
:101D5000B88B4D895E89BE016F5F7F4F8F89988DEB
:101D60000E9404268B8D9C8D009761F06D897E8981
:101D700041E050E04C0F5D1F640F751F498D5A8D77
:101D80000E94042689A59AA5D70117969C938E9345
:101D9000169711961C921E92CD2889F184E4889D95
:101DA000F001899DF00D1124EE5EFC4F8081918140
:101DB000A281B3810196A11DB11D80839183A2836D
:101DC000B3831DC08C01CD28D1F4012BC1F084E474
:101DD000889DF001899DF00D1124EC52FD4F81E0AA
:101DE00090E095A784A785E090E0938B828B07C055
:101DF00083E090E0938B828B81E090E09BCDCE5A84
:101E0000DF4F0FB6F894DEBF0FBECDBFDF91CF918D
:101E10001F910F91FF90EF90DF90CF90BF90AF9008
:101E20009F908F907F906F905F904F903F902F90FA
:101E30000895CF92DF92EF92FF920F931F936B0161
:101E40007C0184E48C9DF0018D9DF00D1124EC52F9
:101E5000FD4F82899389009709F450C00197B9F426
:101E600082A593A59C012F5F3F4F33A722A7092E80
:101E7000000CAA0BBB0B028D138D248D358D8017A2
:101E80009107A207B307D1F5C701B6010CDB84E4C3
:101E90008C9DF0018D9DF00D1124EC52FD4F828937
:101EA0009389039759F582A593A59C012F5F3F4F16
:101EB00033A722A7092E000CAA0BBB0B468D578D0A
:101EC00060A171A184179507A607B707BCF086AD7E
:101ED00097AD93A782A784E090E0938B828B82AD2D
:101EE00093ADA4ADB5AD181619061A061B0634F449
:101EF000EE5BFF4F81E090E0918380831F910F9113
:101F0000FF90EF90DF90CF90089524E4269FF0019A
:101F1000279FF00D1124EC52FD4F8289938904977D
:101F2000B1F482A593A5019693A782A7092E000C70
:101F3000AA0BBB0B46895789608D718D8417950755
:101F4000A607B70721F485E090E0938B828B089574
:101F50002F923F924F925F926F927F928F929F92B9
:101F6000AF92BF92CF92DF92EF92FF920F931F93A7
:101F7000CF93DF93CDB7DEB72E970FB6F894DEBFC1
:101F80000FBECDBF49835A836B837C834901442EA6
:101F9000552E24E4249DF001259DF00D1124EC52D2
:101FA000FD4F22883388910124503109158614860B
:101FB0002230310508F0DDC0DC0111961C921E9222
:101FC00013961C921E921297A12CB12C60E070E027
:101FD0009F01265F3F4F38872F837F013CE0E30E50
:101FE000F11CDF015096BA87A9879F01225F3F4FFE
:101FF0003C872B87681579050CF06FC0EF81F88559
:10200000A081B1819D012A0D3B1D3E872D87D901FD
:102010002D913C911197232B09F059C018960D91E1
:102020001C9119971296ED91FC911397FE83ED8305
:1020300016962D913C911797D7014D915C91DA013D
:10204000E3E0AA0FBB1FEA95E1F7E985FA85C080B6
:10205000D180FD01EC0DFD1D440F551FAB85BC85E6
:10206000CD90DC904C0D5D1DDA016D937C93D70112
:102070004D915C9111974F5F5F4F4D935C9313832C
:102080000283AD85BE851B963C932E931A9702174B
:10209000130748F4201B310B3183208315821482EF
:1020A0001782168214C0AD85BE851496CD90DC9043
:1020B00015974D815E814C0D5D1D401B510B518369
:1020C00040832C193D0935832483D782C6826F5FF4
:1020D0007F4FBEE0AB0EB11C8DCF24E4249D800168
:1020E000259D100D11240C521D4FF80124853585B6
:1020F000DC0111963C932E934089518913965C9391
:102100004E9312974685578515965C934E93149778
:10211000232BA1F5B5E02B16310481F510925C0359
:10212000828D938DA48DB58DAE014F5F5F4F64E0BE
:1021300070E08F3F9F4FAF4FBF4F59F480E290E068
:102140000E943F1A69817A818B819C81A40100DA07
:1021500015C08FE190E00E943F1AD8019B961C9217
:102160001E929A9781E090E053969C938E9352979B
:1021700005C0FC0111821082138212822E960FB6C6
:10218000F894DEBF0FBECDBFDF91CF911F910F91AD
:10219000FF90EF90DF90CF90BF90AF909F908F9087
:1021A0007F906F905F904F903F902F900895EF92A7
:1021B000FF920F931F93CF93DF937C018B01EA0172
:1021C0000E94C21A811121C08091800190918101E9
:1021D000049711F183E090E0909381018093800156
:1021E0001BC098819111F0CF28ED38EB45E050E00D
:1021F00060E070E0CB010E944C1DAE01B801C70148
:102200000E945A1DC8010E94251D80915D03909176
:102210005E03892B31F3D8CFDF91CF911F910F91BE
:10222000FF90EF900895CF93DF932091800130913C
:1022300081012430310541F0EB010E945A1DCE018D
:10224000DF91CF910C94251DDF91CF9108950C94CF
:102250006A210C945F210C944D210C94351D0C9433
:10226000F120089560E070E080E090E00C949D1A09
:102270000895AF92BF92CF92DF92EF92FF920F93A9
:102280001F93CF93DF9300D0CDB7DEB75C01690118
:102290007A018B0180E090E0C114D104E104F104E3
:1022A000F1F0C114D10421E0E206F10410F4A6011A
:1022B00002C04FEF5FEF9E012F5F3F4FB801C50196
:1022C0000E940A228F3F2FEF920749F029813A811D
:1022D000C21AD30AE108F108020F131FDDCF0F90D5
:1022E0000F90DF91CF911F910F91FF90EF90DF90B2
:1022F000CF90BF90AF900895089508958230E8F48C
:10230000E82FF0E0EE0FFF1FEE57FE4F7183608362
:10231000813041F0809169008C7F482B40936900A7
:10232000E89A089580916900440F551F440F551F86
:10233000837F482B40936900E99A08951F920F927A
:102340000FB60F9211242F933F934F935F936F9388
:102350007F938F939F93AF93BF93EF93FF93E091FE
:102360008201F09183010995FF91EF91BF91AF91A7
:102370009F918F917F916F915F914F913F912F919D
:102380000F900FBE0F901F9018951F920F920FB6CF
:102390000F9211242F933F934F935F936F937F93EB
:1023A0008F939F93AF93BF93EF93FF93E09184013B
:1023B000F09185010995FF91EF91BF91AF919F91A8
:1023C0008F917F916F915F914F913F912F910F90DE
:1023D0000FBE0F901F9018951F920F920FB60F927D
:1023E00011242F933F938F939F93AF93BF9380912B
:1023F000600390916103A0916203B09163033091F7
:102400005F0323E0230F2D3720F40196A11DB11D9A
:1024100005C026E8230F0296A11DB11D20935F037E
:102420008093600390936103A0936203B09363036E
:102430008091640390916503A0916603B091670356
:102440000196A11DB11D8093640390936503A09331
:102450006603B0936703BF91AF919F918F913F91B6
:102460002F910F900FBE0F901F9018953FB7F894C3
:102470008091640390916503A0916603B091670316
:1024800026B5A89B05C02F3F19F00196A11DB11DCF
:102490003FBFBA2FA92F982F8827820F911DA11D0A
:1024A000B11DBC01CD0142E0660F771F881F991F47
:1024B0004A95D1F708958F929F92AF92BF92CF9293
:1024C000DF92EF92FF926B017C01D0DF4B015C0148
:1024D000C114D104E104F104F1F00EDFC7DFDC0127
:1024E000CB0188199909AA09BB09883E9340A10527
:1024F000B10570F321E0C21AD108E108F10888EEB5
:10250000880E83E0981EA11CB11CC114D104E10403
:10251000F10421F7DDCFFF90EF90DF90CF90BF90D7
:10252000AF909F908F900895789484B5826084BD19
:1025300084B5816084BD85B5826085BD85B58160C7
:1025400085BDEEE6F0E0808181608083E1E8F0E027
:102550001082808182608083808181608083E0E856
:10256000F0E0808181608083E1EBF0E08081846035
:102570008083E0EBF0E0808181608083EAE7F0E037
:10258000808184608083808182608083808181609B
:1025900080838081806880831092C1000895833099
:1025A00081F028F4813099F08230A1F008958730CD
:1025B000A9F08830B9F08430D1F4809180008F7D0B
:1025C00003C0809180008F7780938000089584B548
:1025D0008F7702C084B58F7D84BD08958091B0004F
:1025E0008F7703C08091B0008F7D8093B0000895F5
:1025F000CF93DF9390E0FC01E456FF4F2491FC0160
:10260000E055FF4F8491882361F190E0880F991F76
:10261000FC01E852FF4FC591D491FC01E253FF4FFA
:10262000A591B491611109C09FB7F8948881209554
:1026300082238883EC912E230BC0623061F49FB714
:10264000F8943881822F809583238883EC912E2BF8
:102650002C939FBF06C08FB7F894E8812E2B288358
:102660008FBFDF91CF9108951F93CF93DF93282FD2
:1026700030E0F901E857FF4F8491F901E456FF4F2C
:10268000D491F901E055FF4FC491CC23C1F0162F2E
:10269000811185DFEC2FF0E0EE0FFF1FE253FF4FBB
:1026A000A591B4918FB7F894111105C09C91ED2FAD
:1026B000E095E92302C0EC91ED2BEC938FBFDF9105
:1026C000CF911F910895CF93DF93282F30E0F90128
:1026D000E857FF4F8491F901E456FF4FD491F90177
:1026E000E055FF4FC491CC2389F0811158DFEC2FC6
:1026F000F0E0EE0FFF1FEC53FF4FA591B491EC916A
:10270000ED2381E090E021F480E002C080E090E0E1
:10271000DF91CF910895FC01918D228D892F90E05A
:10272000805C9F4F821B91098F7399270895FC014C
:10273000918D828D981731F0828DE80FF11D858D76
:1027400090E008958FEF9FEF0895FC01918D828DA9
:10275000981761F0828DDF01A80FB11D5D968C91F5
:10276000928D9F5F9F73928F90E008958FEF9FEF00
:102770000895FC01848DDF01A80FB11DA35ABF4F3E
:102780002C91848D90E001968F739927848FA68970
:10279000B7892C93A089B1898C9180648C93938D97
:1027A000848D981306C00288F389E02D80818F7D87
:1027B00080830895CF93DF93EC01888D8823C1F047
:1027C000EA89FB89808185FD05C0A889B9898C913A
:1027D00086FD0EC00FB607FCF5CF808185FFF2CFD6
:1027E000A889B9898C9185FFEDCFCE01C2DFE8CFF2
:1027F000DF91CF910895EF92FF920F931F93CF93A4
:10280000DF93EC0181E0888F9B8D8C8D981305C040
:10281000E889F989808185FD23C0F62E0B8D10E0B3
:102820000F5F1F4F0F731127E02E8C8DE8120BC026
:102830000FB607FCFACFE889F989808185FFF5CFCB
:10284000CE0197DFF2CF8B8DFE01E80FF11DE35A29
:10285000FF4FF0820B8FEA89FB898081806207C07D
:10286000EE89FF896083E889F989808180648083AB
:1028700081E090E0DF91CF911F910F91FF90EF9059
:102880000895CF92DF92EF92FF921F93CF93DF9341
:10289000EC016A017B01122FE889F98982E08083CB
:1028A0004115514E61057105B1F060E079E08DE3AD
:1028B00090E0A70196010E948124DA01C9010197E5
:1028C000A109B109B695A79597958795AC014115D2
:1028D00080E15807A8F0E889F989108260E874E877
:1028E0008EE190E0A70196010E948124BA01A9011E
:1028F000415051096109710976956795579547953A
:10290000EC85FD855083EE85FF854083188EEC892C
:10291000FD891083EA89FB89808180618083EA894F
:10292000FB89808188608083EA89FB898081806857
:102930008083EA89FB8980818F7D8083DF91CF91BD
:102940001F91FF90EF90DF90CF9008951F920F920C
:102950000FB60F9211242F938F939F93EF93FF93B2
:10296000E0917803F09179038081E0917E03F0910A
:102970007F0382FD12C09081809181038F5F8F73EE
:1029800020918203821751F0E0918103F0E0E85931
:10299000FC4F958F8093810301C08081FF91EF915F
:1029A0009F918F912F910F900FBE0F901F901895B0
:1029B0001F920F920FB60F9211242F933F934F93B4
:1029C0005F936F937F938F939F93AF93BF93EF9397
:1029D000FF9388E693E0CDDEFF91EF91BF91AF9139
:1029E0009F918F917F916F915F914F913F912F9127
:1029F0000F900FBE0F901F901895E8E6F3E013823A
:102A0000128288EE93E0A0E0B0E084839583A683F1
:102A1000B7838EE492E09183808385EC90E0958784
:102A2000848784EC90E09787868780EC90E0918B98
:102A3000808B81EC90E0938B828B82EC90E0958B85
:102A4000848B86EC90E0978B868B118E128E138E82
:102A5000148E08958F929F92AF92BF92CF92DF9281
:102A6000EF92FF920F931F93CF93DF937C018B0123
:102A70006C0182E0C80ED11C4701E5E08E0E911C6E
:102A8000C0E0D0E0F60161916F014AE050E0C8017A
:102A9000C6D05C016EE2C80167D08A0D9B1DC80FCD
:102AA000D91FC814D90471F74AE050E0F7016581D5
:102AB000C801B5D08C0F9D1FDF91CF911F910F9151
:102AC000FF90EF90DF90CF90BF90AF909F908F904E
:102AD0000895E5E0F4E08EE592E091838083128230
:102AE0001382148215820895CF92DF92EF92FF92A3
:102AF0000F931F93CF93DF936C017A018B01C0E09A
:102B0000D0E0CE15DF0589F0D8016D918D01D60199
:102B1000ED91FC910190F081E02DC6010995892B82
:102B200011F47E0102C02196ECCFC701DF91CF9155
:102B30001F910F91FF90EF90DF90CF900895611556
:102B4000710579F0FB0101900020E9F73197AF01A1
:102B5000461B570BDC01ED91FC910280F381E02DC7
:102B6000099480E090E00895DC01ED91FC910190E2
:102B7000F081E02D09944F925F926F927F92EF92D5
:102B8000FF920F931F93CF93DF93CDB7DEB7A1973B
:102B90000FB6F894DEBF0FBECDBF7C01FA01CB01AA
:102BA00019A2223008F42AE08E010F5D1F4F422E39
:102BB000512C612C712CBF01A30192010E94812430
:102BC000F901CA01015011096A3014F4605D01C0B5
:102BD000695CD8016C93232B242B252B61F7B8015A
:102BE000C701ADDFA1960FB6F894DEBF0FBECDBF13
:102BF000DF91CF911F910F91FF90EF907F906F9099
:102C00005F904F9008952115310541F4DC01ED915D
:102C1000FC910190F081E02D642F0994ACCF9A01D2
:102C2000462F50E060E070E0EECF813039F018F0D0
:102C3000823051F0089510926E00089580916F00D7
:102C40008D7F80936F000895809170008D7F8093B9
:102C5000700081E08093B0008091B100887F846033
:102C60008093B1001092B3000895CF93C82F809144
:102C700086018C1307C0E2EEF0E0E4918FEF8093C1
:102C8000860101C0EFEF8E2FD0DF60E08C2FCF9157
:102C9000EBCC1F920F920FB60F9211242F933F93FC
:102CA0004F935F936F937F938F939F93AF93BF9354
:102CB000EF93FF9380910E0490910F04A091100464
:102CC000B0911104892B8A2B8B2B51F180910B042D
:102CD000E0910C04F0910D0490818927808380910C
:102CE0000E0490910F04A0911004B09111041816D5
:102CF00019061A061B06BCF480910E0490910F046D
:102D0000A0911004B09111040197A109B109809319
:102D10000E0490930F04A0931004B093110403C009
:102D200080918601A2DFFF91EF91BF91AF919F91BA
:102D30008F917F916F915F914F913F912F910F9064
:102D40000FBE0F901F90189540E855E260E070E0CC
:102D500080E090E000C026E088E693E092CD1F92EC
:102D60000F920FB60F9211242F933F934F935F93BF
:102D70006F937F938F939F93AF93BF93EF93FF9343
:102D800087EF92EC90938500809384000E94442208
:102D9000FF91EF91BF91AF919F918F917F916F9133
:102DA0005F914F913F912F910F900FBE0F901F9009
:102DB000189587EF92EC9093850080938400AFE69E
:102DC000B0E08C918E7F8C93E0E8F0E080818C7F86
:102DD0008083E1E8F0E08081877E80838081856068
:102DE000808380818D7F80838C9181608C93089516
:102DF00081E008956F927F928F929F92AF92BF92DF
:102E0000CF92DF92EF92FF920F931F93CF93DF93B6
:102E10005C017B014A0101E010E00E151F0564F51D
:102E200068018FEFC81AD80AE801CC0FDD1FC80D62
:102E3000D91D6880798061147104E1F060E672E068
:102E4000C3010E941426892B19F41982188212C01A
:102E500063E672E0C3010E941426892B59F4CE1454
:102E6000DF0441F06801E2E0CE0ED11C1982188225
:102E70001B821A828601D1CF81E0F5018083B401E3
:102E8000C7010E949521F5019283818380E090E043
:102E9000DF91CF911F910F91FF90EF90DF90CF9036
:102EA000BF90AF909F908F907F906F90089582E138
:102EB00094E0089580E008950F931F93CF93DF93DC
:102EC0008B01BA01E901198218829801012E000CC8
:102ED000440B550BFC0181819281CBD9019621F0E5
:102EE0001983088380E001C081E0DF91CF911F91B9
:102EF0000F9108950F931F93CF93DF9300D0CDB719
:102F0000DEB7FB018A01B9019E012F5F3F4FAF0180
:102F1000FC01818192810E94AC21019639F0898166
:102F20009A81F8019183808380E001C081E00F9055
:102F30000F90DF91CF911F910F910895FC01808137
:102F400008950895089581E0FB01808380E008954D
:102F5000089510923C040895FC01818192810C94A3
:102F60008C21CF93DF93CDB7DEB72A970FB6F894B5
:102F7000DEBF0FBECDBFAC01CB0160E070E0498386
:102F80005A836B837C83092E000CAA0BBB0B8D83A9
:102F90009E83AF83B8879E01275F3F4FAE014F5F8F
:102FA0005F4F68E070E080912B0490912C0484DFE7
:102FB000811108C081E029853A852830310519F44E
:102FC00080E001C081E02A960FB6F894DEBF0FBE04
:102FD000CDBFDF91CF9108950F931F93CF93DF93D0
:102FE00000D0CDB7DEB78B019E012F5F3F4FAC0104
:102FF00080912B0490912C045FDF811108C081E047
:1030000029813A812017310719F480E001C081E05D
:103010000F900F90DF91CF911F910F910895CF9353
:10302000DF93EC0110922F0410922E0410923B04B7
:1030300010923A04AC0160E070E0CB010E94A80A53
:10304000AE0161E070E080E090E00E94A80A80910B
:103050002B0490912C04DF91CF917ACF4F925F9205
:103060006F927F928F929F92AF92BF92CF92DF9298
:10307000EF92FF920F931F93CF93DF9300D0CDB7C2
:10308000DEB79C016C0197FF03C087E0C80ED11C1E
:1030900043E0D594C7944A95E1F7C90168E070E030
:1030A0000E946E247C0189010E5F1F4F80912904CC
:1030B00090912A04801791070CF0DCC080912704BE
:1030C00090912804009731F00E946C2510922A04F8
:1030D00010922904C8010E94D72490932804809359
:1030E0002704892B29F010932A0400932904C2C0D5
:1030F000A12CB12CAC14BD040CF05EC0412C512CA1
:10310000320100E010E09801205D3B4FAE014F5FBF
:103110005F4F61E070E080912B0490912C04EADE17
:10312000811198C189819A812FEF421A520A620A4D
:10313000720A20E942162FE5520621E06206710468
:103140003CF060913A0470913B048DEE90E02DC00C
:10315000080F191F0A30110551F549E050E060E0F1
:1031600070E080E394E00E94362260913A0470910E
:103170003B048823C1F08091380490E068177907F8
:1031800009F0B8CF8EEE90E0ECDE80913A04909199
:103190003B040196992790933B0480933A048FEF68
:1031A000A81AB80AA7CF8FEE90E0DBDEA7CF0A30CF
:1031B00011050CF4A8CF9ECFEF2809F44BC1C12C08
:1031C000D12C760100E010E09801205D3B4FAE016C
:1031D0004F5F5F4F61E070E080912B0490912C0471
:1031E00089DE811137C189819A812FEFC21AD20AF3
:1031F000E20AF20A20E9C2162FE5D20621E0E20631
:10320000F1043CF060913A0470913B048DEE90E043
:103210002AC0080F191F0A30110539F549E050E09E
:1032200060E070E080E394E00E94362260913A040E
:1032300070913B048823A9F08091380490E06817CE
:10324000790709F007C18EEE90E08BDE80913A0499
:1032500090913B040196992790933B0480933A0404
:10326000F9C08FEE90E07DDEAACF0A3011050CF494
:10327000ABCFF0C000E010E00C151D050CF077C0DE
:10328000412C512C3201A12CB12C480193E0880C27
:10329000991C9A95E1F72091270430912804C401E4
:1032A0008A0D9B1D280F391FAE014F5F5F4F61E0F4
:1032B00070E080912B0490912C041CDE8111CAC017
:1032C00089819A812FEF421A520A620A720A20E912
:1032D00042162FE5520621E0620671043CF060912F
:1032E0003A0470913B048DEE90E034C0A80EB91EF4
:1032F0008AE0A816B104A9F549E050E0B401809134
:103300002704909128040E94362260913A0470911B
:103310003B048823E9F08091270490912804FC0164
:10332000E80DF91D808590E06817790709F0A4CFB2
:103330008EEE90E016DE80913A0490913B04019667
:10334000992790933B0480933A040F5F1F4F94CFCB
:103350008FEE90E006DE412C512C3201A12CB12CD5
:103360009ACF2AE0A216B1040CF495CF85CFE114D0
:10337000F10409F46AC0680183E0CC0CDD1C8A9575
:10338000E1F7812C912C540100E010E09801205DC0
:103390003B4FAE014F5F5F4F61E070E080912B04C7
:1033A00090912C04A7DD811155C089819A812FEF5E
:1033B000821A920AA20AB20A20E982162FE5920620
:1033C00021E0A206B1043CF060913A0470913B0404
:1033D0008DEE90E034C0080F191F0A30110589F5F1
:1033E00049E050E060E070E080E394E00E94362223
:1033F00060913A0470913B048823F9F0809138047D
:1034000090E06817790709F58EEE90E0AADD8091CB
:10341000270490912804A70160E374E08C0D9D1DA2
:103420000E94042680913A0490913B0401969927CA
:1034300090933B0480933A0408C08FEE90E091DDB6
:10344000A0CF0A3011050CF4A1CF809127049091F0
:10345000280402C080E090E00F900F90DF91CF91A0
:103460001F910F91FF90EF90DF90CF90BF90AF90A2
:103470009F908F907F906F905F904F900895CF9224
:10348000DF92EF92FF920F931F93CF93DF931F92E0
:10349000CDB7DEB76C017B018A01452B31F0AB0162
:1034A00060E070E0C801DED78983B701C60159DD4D
:1034B00081110DC00115110551F0B701C8018CDD56
:1034C000811105C061E070E0CE01019685DD0F90AD
:1034D000DF91CF911F910F91FF90EF90DF90CF90F0
:1034E0000895CF92DF92EF92FF92CF93DF93CDB703
:1034F000DEB728970FB6F894DEBF0FBECDBF6B01C5
:10350000E12CF12CC982DA82EB82FC822D833E838E
:103510004F835887AE014F5F5F4F68E070E0AFDFC9
:1035200028960FB6F894DEBF0FBECDBFDF91CF91C6
:10353000FF90EF90DF90CF9008950F931F93CF935C
:10354000DF93EC018B01B3DC90932C0480932B046C
:10355000009739F0A801BE014DDCEC01892B19F46C
:103560000BC0CFE6D2E080912B0490912C04E9DCD3
:1035700010922C0410922B04CE01DF91CF911F9159
:103580000F91089580912B0490912C04D7CC2F9209
:103590003F924F925F926F927F928F929F92AF92E3
:1035A000BF92CF92DF92EF92FF920F931F93CF9330
:1035B000DF93CDB7DEB769970FB6F894DEBF0FBEC5
:1035C000CDBF20912F04222309F426C25D8B4C8BA2
:1035D000688B798B8A8B9B8B9A01AB01BC01CE01E6
:1035E00001960E94A80F10E038E0232E312C89812B
:1035F0009A81181619060CF00AC21F861E861D86AF
:103600001C8689819A81AC85BD85A817B9070CF005
:10361000F3C1EB81FC812E853F85E20FF31F2081F2
:1036200031813093260420932504848195819093E1
:1036300024048093230442815381509322044093B5
:103640002104468157815093200440931F04820F28
:10365000931F9C01990F440B550B2E8B3F8B488F6A
:10366000598FC12CD12C76012E893F89488D598DD7
:10367000C216D306E406F50608F0A2C11F826091C7
:103680002504709126048B01072E000C220B330BAE
:10369000D701C6010496A11DB11D80179107A2078D
:1036A000B30728F4E0912104F09122040AC0E4E079
:1036B000F0E0E61BF70BEC0DFD1D80911F049091CF
:1036C0002004E80FF91F4080512C612C712CD70188
:1036D000C6010596A11DB11D80179107A207B3076A
:1036E00028F4E0912104F09122040AC0E5E0F0E022
:1036F000E61BF70BEC0DFD1D80911F04909120043B
:10370000E80FF91F8081582AD701C6010696A11D2E
:10371000B11D80179107A207B30728F4E091210497
:10372000F09122040AC0E6E0F0E0E61BF70BEC0D96
:10373000FD1D80911F0490912004E80FF91F8081E6
:10374000682AD701C6010796A11DB11D80179107F0
:10375000A207B30728F4E0912104F09122040AC0E3
:10376000E7E0F0E0E61BF70BEC0DFD1D80911F0478
:1037700090912004E80FF91F8081782A46015701B3
:1037800048E0840E911CA11CB11C081519052A05DE
:103790003B0508F4B4C0C016D106E206F30638F4BF
:1037A00080912104909122048C0D9D1D09C0C601B9
:1037B000861B970B20911F0430912004820F931FCA
:1037C00068E070E009DCE0912504F09126049F0197
:1037D0000F2E000C440B550BD301C201880D991D0F
:1037E000AA1DBB1D281739074A075B07C8F08216B8
:1037F0009306A406B50638F42091210430912204E2
:10380000C601089609C0C1018E1B9F0B8C0D9D1D22
:1038100020911F0430912004820F931FB20199C0A0
:103820008601BF01685071096C197D0982169306E3
:10383000A406B50638F42091210430912204C60173
:10384000089609C0C1018E1B9F0B8C0D9D1D2091F8
:103850001F0430912004820F931FBEDB809125044A
:1038600090912604B101681B790B600F711F640DE4
:10387000751D80911F0490912004AEDB809125047A
:1038800090912604AC0148505109FA01E01BF10B5C
:10389000AC01092E000C660B770B84169506A60664
:1038A000B70638F42091210430912204C60108960D
:1038B0000AC09101281B390BC9018C0D9D1D209157
:1038C0001F0430912004820F931FAF0160E070E06D
:1038D000C9D58F832091250430912604A101421B74
:1038E000530B9A01200F311F240D351D40E050E08D
:1038F000682F80911F0490912004A0D550C0C0165D
:10390000D106E206F306C8F46C197D098091210402
:10391000909122048C0D9D1D5FDB80912504909178
:103920002604B101681B790B6C0D7D1D640D751D9E
:1039300080911F04909120040CC0C601861B970B38
:1039400020911F0430912004B201685F7F4F820FE5
:10395000931F42DB8091250490912604AC01092E2F
:10396000000C660B770B84169506A606B70638F48E
:103970002091210430912204C60108960AC0D10189
:10398000A81BB90BCD018C0D9D1D20911F043091FA
:103990002004820F931FA20160E070E063D58F8343
:1039A00061E070E0CE01079617DB182FB8E04B0EF0
:1039B000511C611C711CC40CD51CE61CF71C54CE98
:1039C0008C859D85880F991FED81FE81E80FF91F79
:1039D000488959896A897B89808191810E94DA0AA4
:1039E0004C855D854F5F5F4F5D874C878E859F85DA
:1039F00008969F878E8705CE2C893D8948895989ED
:103A00006A897B89CE0101960E94A80FF0CD11230F
:103A100019F08C899D8903DB69960FB6F894DEBF97
:103A20000FBECDBFDF91CF911F910F91FF90EF900F
:103A3000DF90CF90BF90AF909F908F907F906F90CE
:103A40005F904F903F902F900895CF93DF93EC01BC
:103A5000AC0160E070E0CB019ADDAE0161E070E0A6
:103A600080E090E0DF91CF9192CDCF9380912B04B5
:103A700090912C041FDAC82F81110BC060E070E018
:103A8000CB010E94AA0561E070E080E090E00E9416
:103A9000AA058C2FCF9108950F931F9389019A0146
:103AA000AB01BC0180912B0490912C044BDA1F9147
:103AB0000F9108953F924F925F926F927F928F92F3
:103AC0009F92AF92BF92CF92DF92EF92FF920F93AD
:103AD0001F93CF93DF93CDB7DEB767970FB6F894F8
:103AE000DEBF0FBECDBF6C017B015A0180912F0458
:103AF000882331F080912F04882309F45AC30AC027
:103B00006FE274E080912B0490912C041CDA8111F7
:103B100050C3F0CF80912E041A821982882309F4B1
:103B20006AC0E0E94E2EEFE55E2E66246394712CA8
:103B300000E010E098012B5E3B4FAE014F5F5F4FFE
:103B400061E070E080912B0490912C04D3D9982EE1
:103B500081114DC089819A81080F191F0115110526
:103B600009F445C081E0481A51086108710839F428
:103B700060913A0470913B048DEE90E030C00A30C1
:103B8000110589F549E050E060E070E085E194E0DE
:103B90006DD460913A0470913B048823F1F08091D8
:103BA0001D0490E068177907D9F48EEE90E0D9D91A
:103BB00088E0E5E1F4E0DE01199601900D928A9526
:103BC000E1F720913A0430913B042F5F3F4F3327B8
:103BD00030933B0420933A040AC08FEE90E0C1D9A1
:103BE0001A82198204C00A3011050CF4A3CF81E0B7
:103BF00029813A8124C000E010E078E0672E712C22
:103C000029E030E02C0F3D1F200F311FAE014F5F28
:103C10005F4FB301601B710B80912B0490912C04BA
:103C200069D9982E29813A81811108C0020F131F8A
:103C30000115110519F00830110514F381E0121671
:103C400013060CF080E09110B1C2882309F4B1C2D0
:103C500080912E04811104C019861A861B861C8649
:103C600089859A85AB85BC858031910508F0A1C214
:103C7000FC01EC5CFF4F67C6D6011696ED91FC91F6
:103C8000179780819181A281B38189839A83AB83C5
:103C9000BC83AE014F5F5F4F64E070E085E190E070
:103CA0007DC18D859E85DAD9009731F42FEF3FEFE6
:103CB000A90161E070E00EC0FC0180809180A280CB
:103CC000B380A701C501B4010E94530AA501940164
:103CD00060E070E08DE190E067C28D859E85BED981
:103CE000009721F42FEF3FEFA90110C0DC018D9068
:103CF0009D90AD90BD90AD0195018401B701C601C5
:103D00000E94EF06A5019401882319F061E070E09C
:103D100002C060E070E08BE190E046C28D859E8538
:103D20009DD9009721F42FEF3FEFA9010FC0FC01AF
:103D300081909190A190B190BF01A5019401C6011D
:103D40000E94F808A5019401882319F061E070E051
:103D500002C060E070E08CE190E026C2D6011496CB
:103D6000ED91FC91159700811181F801828093807B
:103D7000A080B18060E1462E512C612C712C4982CB
:103D80005A826B827C8288E090E0A0E0B0E08D8374
:103D90009E83AF83B8879E012F5E3F4FAE014F5F7A
:103DA0005F4F68E070E080912B0490912C0484D8E0
:103DB000882319F000E010E0BAC089899A89089731
:103DC000C9F7D801ED90FC90B8E0EB0EF11CEE0CB9
:103DD000FF1CEE0CFF1CC701EAD58C01892B51F3A7
:103DE00049825A826B827C82C7010F2C000CAA0B7D
:103DF000BB0B8D839E83AF83B8879E012F5E3F4FA1
:103E0000AE014F5F5F4F68E070E080912B049091AE
:103E10002C0452D881118BC089899A89089709F09E
:103E200086C0D6011296ED91FC9113974081518185
:103E300062817381D8014D935D936D937C93139749
:103E4000448155816681778114964D935D936D937E
:103E50007C931797408551856285738518964D939D
:103E60005D936D937C931B9784859585A685B78517
:103E7000F80184879587A687B787108A118A128AE6
:103E8000138A84E090E0A0E0B0E0848B958BA68B51
:103E9000B78B8091800190918101A0E0B0E0808F8C
:103EA000918FA28FB38FC5010B2C000CAA0BBB0BFB
:103EB000848F958FA68FB78FF401D801909680E0FC
:103EC00090E08A159B0554F44191519160E070E0B7
:103ED0004D935D936D937D930196F3CF9E012F5E7D
:103EE0003F4FA801B70180912B0490912C040E94B0
:103EF0005C1781111CC089899A898E159F05B9F4B8
:103F0000A70160E070E0C801ADD28B8B9E012F5EEF
:103F10003F4FAE014D5E5F4F61E070E080912B043A
:103F200090912C040E945C1781E080932E04C801BC
:103F300067960FB6F894DEBF0FBECDBFDF91CF916D
:103F40001F910F91FF90EF90DF90CF90BF90AF90B7
:103F50009F908F907F906F905F904F903F90BCC5E7
:103F60008D859E85AF85B8890097A105B10521F49F
:103F700081E080932D041DC171D8009789F481E000
:103F800090E0A0E0B0E089839A83AB83BC83AE016C
:103F90004F5F5F4F64E070E082E190E070DA09C14A
:103FA000BC01C6010E94FC0419821A821B821C8279
:103FB000AE014F5F5F4F64E070E082E190E05FDA56
:103FC0008111F7C0D5CFD6011496ED91FC911597CC
:103FD0000190F081E02D008511858FEF8983011517
:103FE000110509F472C0D8016D907C90A280B38055
:103FF00020E030E060E070E080E090E0861597051A
:104000000CF5F801A281B381A20FB31F1296ED91B6
:10401000FC911397EE0FFF1FEA0DFB1D0190F0813D
:10402000E02D16960D90BC91A02DEA9FA001EB9F6C
:10403000500DFA9F500D1124640F751F0196285FD3
:104040003F4FDCCF83E190E00E94B1178111B1C0F6
:10405000C12CD12CE12CF12CE614F7047CF5D8010D
:104060001296ED91FC911397EC0DFD1D80809180CF
:10407000A281B381AA0FBB1FAA0DBB1D2D913C913C
:1040800086819781289F2001299F500C389F500CD2
:104090001124B201C4010E94EC17382E920140E0B5
:1040A00050E06981C401CAD18983B8E0CB0ED11C2C
:1040B00031107FC0EFEFEE1AFE0ACECF61E070E064
:1040C000CE0101960E94EC1774C060E070E083E1BD
:1040D00090E00E94B1176DC040E050E060E070E0F9
:1040E00081E190E0CCD9811164C0812C912C5401E4
:1040F000C501B4010E94D60680915C03882321F09B
:10410000A701C501B40143DAA701C501B4010E94AA
:10411000D6058A9489288A288B2829F0812C912C0D
:1041200054018394E5CF10922F0410922E04109224
:104130003B0410923A0480912B0490912C040E942D
:10414000A91737C081E090E090935E0380935D03F0
:1041500040E050E060E070E086E190E01FCF81E059
:10416000D5018C9326C08D859E850E942E180097C0
:1041700031F42FEF3FEFA90161E070E013C0FC01C3
:104180002081318142815381CA01B9012C8B3D8B41
:104190004E8B5F8B0E94B30A2C893D894E895F89C3
:1041A00060E070E08EE190E09CD903C0C7010E94FE
:1041B0000F1867960FB6F894DEBF0FBECDBFDF9124
:1041C000CF911F910F91FF90EF90DF90CF90BF9014
:1041D000AF909F908F907F906F905F904F903F90A7
:1041E0000895CF92DF92EF92FF92CF93DF93EC018D
:1041F000C12CD12C7601C701B6010E94D606AE01B2
:10420000C701B601C4D9AE01C701B6010E94D605E7
:104210008091270490912804009729F05DD4109292
:10422000280410922704CA94CD28CE28CF2829F03C
:10423000C12CD12C7601C394DECF80912E0488232B
:1042400059F040E050E060E070E084E190E017D980
:10425000F82E10922E0401C0F12C80912F04882397
:1042600041F010922F0481E090E0909381018093BF
:10427000800180912B0490912C040E94AC178091B6
:104280002B0490912C040E94A1178F2DDF91CF91C8
:10429000FF90EF90DF90CF900895CF93DF93EC01E4
:1042A000AC0160E070E0CB010E94190FAE0161E04B
:1042B00070E080E090E0DF91CF910C94190F60E006
:1042C00070E0CB010E94850F61E070E080E090E03B
:1042D0000C94850FCF92DF92EF92FF920F931F9372
:1042E000CF93DF93EC016A017B0100E010E09801BD
:1042F0000E94030B01E010E020E030E0B701A601CE
:10430000CE010E94030BDF91CF911F910F91FF907F
:10431000EF90DF90CF90089568EE73E080E090E03A
:104320000E945B1280E090E0089526E040E050E1BA
:104330006EE070E088E693E00E94411488E693E026
:104340000E948B13892B29F088E693E00E94A51325
:10435000F5CF80E090E00895AF92BF92CF92DF92C8
:10436000EF92FF920F931F93CF93DF9300D0CDB7BF
:10437000DEB77A018901F9011182108288E693E0A3
:1043800069837A830E948B1369817A81892B99F1E1
:104390005B01DD24D39485E6C82E80913C04811115
:1043A00024C088E693E00E94A51385369105A9F7FD
:1043B000D0923C04F501C1925F01F80180819181A6
:1043C000019691838083E9CF88E693E00E94A5134C
:1043D0008F3FFFEF9F0749F0F50181935F01F801DF
:1043E00080819181019691838083F8018081918100
:1043F0008E159F0548F380E090E00F900F90DF91BD
:10440000CF911F910F91FF90EF90DF90CF90BF90D1
:10441000AF9008950F931F93CF93DF93EA01890123
:1044200088E693E00E947415F801D183C08380E090
:1044300090E0DF91CF911F910F910895DC01A40FBF
:10444000B51F240F351FAD01481B590B42175307E9
:1044500038F4ED91E627F0E0ED51FF4F6491F3CF92
:10446000862F08959A01AB016FEFE8CFCF93FC013F
:10447000E60FF71FE40FF51FC081F4DF91E0C813CA
:1044800090E0892FCF91089580913E0491E0980F9C
:1044900090933E04882349F021E030E030934004BB
:1044A00020933F0480933E04089578940E94D401A1
:1044B000F89480913E04815080933E040C9429111D
:1044C000FF920F931F93CF93DF9300D0CDB7DEB74A
:1044D000FF24F394FA820E9494120E94A416009181
:1044E000480210914902F8011182108260E070E0E8
:1044F00080E090E00E9432110E9485027894C80109
:10450000C1960E94311181E090E00E942D11198224
:10451000AE014F5F5F4F61E070E0F80182819381EF
:104520000E94D7108981882311F0F801F5AA0E9412
:104530003811F8940E94D916F80180819181892B55
:1045400019F481E095A9911180E08A837894789498
:10455000FF24F3948A81882371F11982AE014F5FA1
:104560005F4F61E070E0F801828193810E94131136
:104570008981882311F0F801F5AAF80180819181E1
:10458000892B31F481E095A9911103C080E001C02D
:1045900081E080933D0490913D0481E0911180E0A1
:1045A0008A838A81882319F00E94F81602C080E06D
:1045B00090E08A83CFCF0E946C0381E090E00E945C
:1045C0002F11F89480E090E00F900F90DF91CF9141
:1045D0001F910F91FF9008955058BB27AA270ED026
:1045E000DCC0CDD030F0D2D020F031F49F3F11F4B8
:1045F0001EF4C2C00EF4E095E7FBB8C0E92FDED090
:1046000080F3BA17620773078407950718F071F4EF
:104610009EF5F6C00EF4E0950B2EBA2FA02D0B01DF
:10462000B90190010C01CA01A0011124FF27591BF7
:1046300099F0593F50F4503E68F11A16F040A22FFD
:10464000232F342F4427585FF3CF4695379527956E
:10465000A795F0405395C9F77EF41F16BA0B620B6D
:10466000730B840BBAF09150A1F0FF0FBB1F661FB4
:10467000771F881FC2F70EC0BA0F621F731F841FF7
:1046800048F4879577956795B795F7959E3F08F01D
:10469000B3CF9395880F08F09927EE0F97958795DC
:1046A000089540D008F481E00895E89409C097FB8C
:1046B0003EF490958095709561957F4F8F4F9F4FF9
:1046C0009923A9F0F92F96E9BB279395F69587953D
:1046D00077956795B795F111F8CFFAF4BB0F11F400
:1046E00060FF1BC06F5F7F4F8F4F9F4F16C08823A7
:1046F00011F096E911C0772321F09EE8872F762FDD
:1047000005C0662371F096E8862F70E060E02AF01D
:104710009A95660F771F881FDAF7880F9695879509
:1047200097F90895990F0008550FAA0BE0E8FEEFDE
:1047300016161706E807F907C0F012161306E40765
:10474000F50798F0621B730B840B950B39F40A265E
:1047500061F0232B242B252B21F408950A2609F43C
:10476000A140A6958FEF811D811D089597F99F6740
:1047700080E870E060E008959FEF80EC08950024E9
:104780000A941616170618060906089500240A94B6
:1047900012161306140605060895092E0394000C3C
:1047A00011F4882352F0BB0F40F4BF2B11F460FFCB
:1047B00004C06F5F7F4F8F4F9F4F089557FD9058F4
:1047C000440F551F59F05F3F71F04795880F97FBD5
:1047D000991F61F09F3F79F087950895121613068F
:1047E0001406551FF2CF4695F1DF08C016161706BE
:1047F0001806991FF1CF86957105610508940895F3
:10480000E894BB2766277727CB0197F908958ADFBD
:1048100008F48FEF08950BD0C0CFB1DF28F0B6DFDA
:1048200018F0952309F0A2CFA7CF1124EACFC6DF55
:10483000A0F3959FD1F3950F50E0551F629FF001B3
:10484000729FBB27F00DB11D639FAA27F00DB11D0C
:10485000AA1F649F6627B00DA11D661F829F222795
:10486000B00DA11D621F739FB00DA11D621F839F1C
:10487000A00D611D221F749F3327A00D611D231FF2
:10488000849F600D211D822F762F6A2F11249F5740
:1048900050408AF0E1F088234AF0EE0FFF1FBB1F63
:1048A000661F771F881F91505040A9F79E3F510502
:1048B00070F05CCFA6CF5F3FECF3983EDCF38695BB
:1048C00077956795B795F795E7959F5FC1F7FE2BAD
:1048D000880F911D9695879597F9089597FB072E58
:1048E00016F4009406D077FD08D033D007FC05D02D
:1048F0003EF4909581959F4F0895709561957F4FF7
:104900000895A1E21A2EAA1BBB1BFD010DC0AA1F10
:10491000BB1FEE1FFF1FA217B307E407F50720F028
:10492000A21BB30BE40BF50B661F771F881F991FA3
:104930001A9469F760957095809590959B01AC01EC
:10494000BD01CF010895EE0FFF1F0590F491E02DFA
:104950000994AA1BBB1B51E107C0AA1FBB1FA617C6
:10496000B70710F0A61BB70B881F991F5A95A9F718
:1049700080959095BC01CD0108950F931F93CF931F
:10498000DF93869F8001879F100D969F100D112445
:10499000C8010DD0EC01009721F0A80160E070E0A3
:1049A0003CD1CE01DF91CF911F910F910895CF930C
:1049B000DF938230910510F482E090E0E091AA0448
:1049C000F091AB0420E030E0C0E0D0E0309711F18E
:1049D0004081518148175907C0F04817590761F4C1
:1049E00082819381209719F09B838A832BC09093B7
:1049F000AB048093AA0426C02115310519F0421793
:104A0000530718F49A01BE01DF01EF010280F38120
:104A1000E02DDCCF2115310509F1281B390B24309D
:104A2000310590F412968D919C9113976115710543
:104A300021F0FB019383828304C09093AB048093A5
:104A4000AA04FD01329644C0FD01E20FF31F8193D9
:104A50009193225031092D933C933AC02091A804A0
:104A60003091A904232B41F42091020130910301DC
:104A70003093A9042093A8042091000130910101F2
:104A80002115310541F42DB73EB7409104015091F5
:104A90000501241B350BE091A804F091A904E2174D
:104AA000F307A0F42E1B3F0B2817390778F0AC0151
:104AB0004E5F5F4F2417350748F04E0F5F1F50932E
:104AC000A9044093A8048193919302C0E0E0F0E030
:104AD000CF01DF91CF9108950F931F93CF93DF9371
:104AE000009709F48CC0FC01329713821282009166
:104AF000AA041091AB040115110581F420813181C4
:104B0000820F931F2091A8043091A9042817390718
:104B100079F5F093A904E093A80471C0D80140E0AE
:104B200050E0AE17BF0750F412962D913C911397A9
:104B3000AD012115310509F1D901F3CF9D01DA014C
:104B40003383228360817181860F971F82179307B9
:104B500069F4EC0128813981260F371F2E5F3F4F02
:104B6000318320838A819B8193838283452B29F41F
:104B7000F093AB04E093AA0442C01396FC93EE9327
:104B80001297ED01499159919E01240F351FE217AB
:104B9000F30771F480819181840F951F029611961D
:104BA0009C938E938281938113969C938E931297FC
:104BB000E0E0F0E0D80112968D919C911397009758
:104BC00019F0F8018C01F6CF8D919C9198012E5F20
:104BD0003F4F820F931F2091A8043091A9042817FA
:104BE000390769F4309729F41092AB041092AA04A3
:104BF00002C0138212821093A9040093A804DF91CB
:104C0000CF911F910F910895FB01DC0102C001902B
:104C10000D9241505040D8F70895DC0101C06D93CA
:104C200041505040E0F70895FB01DC018D91019067
:0E4C300080190110D9F3990B0895F894FFCF65
:104C3E000000AC0480000100000001000E017201B2
:104C4E0000000000030003001A0177040E000000AC
:104C5E00010085040F00000001008F040200000017
:104C6E0001009B01A201AC01AB01B401B301BD0176
:104C7E00BC01C501CF01DA01E001EA01F30107022F
:104C8E0027020400040001000100020002000400DB
:104C9E0004000100040002000200040008000E00DF
:104CAE000A00000080BF00000000000000000101AB
:104CBE0001007D117D11FF53696D756C6174696F13
:104CCE006E2066696E6973686564007265616C5FFB
:104CDE0054007265616C33325F540075696E7438BE
:104CEE005F540075696E7431365F540075696E7469
:104CFE0033325F5400626F6F6C65616E5F54006695
:104D0E00636E5F63616C6C5F5400696E745F540018
:104D1E00706F696E7465725F5400616374696F6E53
:104D2E005F540074696D65725F75696E7433325FBE
:104D3E00706169725F5400636F646572746172674B
:104D4E0065745F61726475696E6F626173655F62CF
:104D5E006C6F636B5F5400636F646572746172672E
:104D6E0065745F61726475696E6F626173655F62AF
:104D7E006C6F5F625F540001410400000000FB1382
:104D8E0074158B13A5139713DA13000000002A1560
:104D9E002D77002D69676E6F72652D617267004306
:104DAE006F756C64206E6F7420637265617465201C
:104DBE0065787465726E616C206D6F6465207573B5
:104DCE00657220646174612E20204F7574206F66A9
:0A4DDE00206D656D6F72792E0A00DA
:00000001FF
